{
  "transactions": [
    {
      "hash": "0x217dad708e3e03e48fc91590a82b27d606dfe0940b5e2297ce08c6aa7274ec08",
      "transactionType": "CALL",
      "contractName": "LinkToken",
      "contractAddress": "0x779877A7B0D9E8603169DdbD7836e478b4624789",
      "function": "transferAndCall(address,uint256,bytes):(bool)",
      "arguments": [
        "0x8103B0A8A00be2DDC778e6e7eaa21791Cd364625",
        "3000000000000000000",
        "0x0000000000000000000000000000000000000000000000000000000000001039"
      ],
      "transaction": {
        "type": "0x02",
        "from": "0xd854e502356d180b02e09088d5448901b74b524c",
        "to": "0x779877a7b0d9e8603169ddbd7836e478b4624789",
        "gas": "0x1b43f",
        "value": "0x0",
        "data": "0x4000aea00000000000000000000000008103b0a8a00be2ddc778e6e7eaa21791cd36462500000000000000000000000000000000000000000000000029a2241af62c0000000000000000000000000000000000000000000000000000000000000000006000000000000000000000000000000000000000000000000000000000000000200000000000000000000000000000000000000000000000000000000000001039",
        "nonce": "0x9",
        "accessList": []
      },
      "additionalContracts": [],
      "isFixedGasLimit": false
    }
  ],
  "receipts": [
    {
      "transactionHash": "0x217dad708e3e03e48fc91590a82b27d606dfe0940b5e2297ce08c6aa7274ec08",
      "transactionIndex": "0x6",
      "blockHash": "0x777c1da244039ba7d8a14c82ddeb231fdac2a6155c733d2e2c3d24a27842ced9",
      "blockNumber": "0x3df70a",
      "from": "0xd854E502356D180B02E09088D5448901b74b524c",
      "to": "0x779877A7B0D9E8603169DdbD7836e478b4624789",
      "cumulativeGasUsed": "0x2c8e80",
      "gasUsed": "0x12a4a",
      "contractAddress": null,
      "logs": [
        {
          "address": "0x779877A7B0D9E8603169DdbD7836e478b4624789",
          "topics": [
            "0xddf252ad1be2c89b69c2b068fc378daa952ba7f163c4a11628f55a4df523b3ef",
            "0x000000000000000000000000d854e502356d180b02e09088d5448901b74b524c",
            "0x0000000000000000000000008103b0a8a00be2ddc778e6e7eaa21791cd364625"
          ],
          "data": "0x00000000000000000000000000000000000000000000000029a2241af62c0000",
          "blockHash": "0x777c1da244039ba7d8a14c82ddeb231fdac2a6155c733d2e2c3d24a27842ced9",
          "blockNumber": "0x3df70a",
          "transactionHash": "0x217dad708e3e03e48fc91590a82b27d606dfe0940b5e2297ce08c6aa7274ec08",
          "transactionIndex": "0x6",
          "logIndex": "0x10",
          "removed": false
        },
        {
          "address": "0x779877A7B0D9E8603169DdbD7836e478b4624789",
          "topics": [
            "0xe19260aff97b920c7df27010903aeb9c8d2be5d310a2c67824cf3f15396e4c16",
            "0x000000000000000000000000d854e502356d180b02e09088d5448901b74b524c",
            "0x0000000000000000000000008103b0a8a00be2ddc778e6e7eaa21791cd364625"
          ],
          "data": "0x00000000000000000000000000000000000000000000000029a2241af62c0000000000000000000000000000000000000000000000000000000000000000004000000000000000000000000000000000000000000000000000000000000000200000000000000000000000000000000000000000000000000000000000001039",
          "blockHash": "0x777c1da244039ba7d8a14c82ddeb231fdac2a6155c733d2e2c3d24a27842ced9",
          "blockNumber": "0x3df70a",
          "transactionHash": "0x217dad708e3e03e48fc91590a82b27d606dfe0940b5e2297ce08c6aa7274ec08",
          "transactionIndex": "0x6",
          "logIndex": "0x11",
          "removed": false
        },
        {
          "address": "0x8103B0A8A00be2DDC778e6e7eaa21791Cd364625",
          "topics": [
            "0xd39ec07f4e209f627a4c427971473820dc129761ba28de8906bd56f57101d4f8",
            "0x0000000000000000000000000000000000000000000000000000000000001039"
          ],
          "data": "0x000000000000000000000000000000000000000000000000000000000000000000000000000000000000000000000000000000000000000029a2241af62c0000",
          "blockHash": "0x777c1da244039ba7d8a14c82ddeb231fdac2a6155c733d2e2c3d24a27842ced9",
          "blockNumber": "0x3df70a",
          "transactionHash": "0x217dad708e3e03e48fc91590a82b27d606dfe0940b5e2297ce08c6aa7274ec08",
          "transactionIndex": "0x6",
          "logIndex": "0x12",
          "removed": false
        }
      ],
      "status": "0x1",
      "logsBloom": "0x0000001400000000000000000000000000000000000000020000000002000000000000000000800000000000000000000000000000000000000000000008000000000080000000000000000800000000000000000000000000002000000000000000000000000000000000000000000000000000400000000000001000000000000000000c000020000000000000800010000020000000000004080000000000000000000000000000000000000000000000000000000000000400000000000000000002000000000000020000000000000000000000000100000000000000000000000000000000000000000000000000000000000000000000001000000000",
      "type": "0x2",
      "effectiveGasPrice": "0xc184061e"
    }
  ],
  "libraries": [],
  "pending": [],
  "returns": {},
  "timestamp": 1691660798,
  "chain": 11155111,
  "multi": false,
  "commit": "f16f953"
}