{
  "transactions": [
    {
      "hash": "0x217dad708e3e03e48fc91590a82b27d606dfe0940b5e2297ce08c6aa7274ec08",
      "transactionType": "CALL",
      "contractName": "LinkToken",
      "contractAddress": "0x779877A7B0D9E8603169DdbD7836e478b4624789",
      "function": "transferAndCall(address,uint256,bytes):(bool)",
      "arguments": [
        "0x8103B0A8A00be2DDC778e6e7eaa21791Cd364625",
        "3000000000000000000",
        "0x0000000000000000000000000000000000000000000000000000000000001039"
      ],
      "transaction": {
        "type": "0x02",
        "from": "0xd854e502356d180b02e09088d5448901b74b524c",
        "to": "0x779877a7b0d9e8603169ddbd7836e478b4624789",
        "gas": "0x1b43f",
        "value": "0x0",
        "data": "0x4000aea00000000000000000000000008103b0a8a00be2ddc778e6e7eaa21791cd36462500000000000000000000000000000000000000000000000029a2241af62c0000000000000000000000000000000000000000000000000000000000000000006000000000000000000000000000000000000000000000000000000000000000200000000000000000000000000000000000000000000000000000000000001039",
        "nonce": "0x9",
        "accessList": []
      },
      "additionalContracts": [],
      "isFixedGasLimit": false
    }
  ],
  "receipts": [],
  "libraries": [],
  "pending": [
    "0x217dad708e3e03e48fc91590a82b27d606dfe0940b5e2297ce08c6aa7274ec08"
  ],
  "returns": {},
  "timestamp": 1691660785,
  "chain": 11155111,
  "multi": false,
  "commit": "f16f953"
}